:100000000C94C4000C94E1000C94E1000C94E10009
:100010000C94E1000C94E1000C94E1000C94E100DC
:100020000C94E1000C94E1000C9457010C949501A0
:100030000C94E1000C94E1000C94E1000C94E100BC
:100040000C945C040C94E1000C94E1000C94E1002D
:100050000C94E1000C94E1000C94E1000C94E1009C
:100060000C94E1000C94E1000C94E1000C94E1008C
:100070000C94E1000C9470040C94E1000C94E100E9
:100080000C94E1000C94E1000C94E1000C94E1006C
:100090000C94E1000C94E1000C94E1000C94E1005C
:1000A0000C94E1000C94E1000C94E1000A006469F6
:1000B00066666572656E63653A20000A0066616C6B
:1000C0006C74696D653A20000A0072697365746921
:1000D0006D653A2000000100006C01120002000072
:1000E0002901430003000025010401030904110153
:1000F000120203090409010603030904FF000808AA
:1001000003340031003000000006034D00320000CF
:100110000012034A002E0020004600690065006EB0
:100120000065000000040309040902430002010005
:10013000C032090400000102020100052400100180
:100140000524010101042402060524060001070517
:10015000820310004009040100020A0000000705A4
:100160000302400000070584024000001201000263
:1001700002000010C0167A04000101020301000110
:10018000C11201803601813611241FBECFEFDAE0A3
:10019000DEBFCDBF11E0A0E0B1E0E0E0FAE002C0D8
:1001A00005900D92A830B107D9F721E0A8E0B1E0A1
:1001B00001C01D92A231B207E1F70E94EB030C943B
:1001C000FE040C94000081E08093D70080EA8093C5
:1001D000D80082E189BD09B400FEFDCF80E980939B
:1001E000D8001092E00010920D0110920A018CE0EC
:1001F0008093E20078940895CF93DF9390910D015E
:10020000992309F44CC09FB7F89424E02093E900A7
:1002100020910B01222349F02091E80025FD03C025
:100220009FBF8FEF41C010920B013091E400375E09
:100230002091E80025FD24C09FBF9091E40039176C
:1002400081F090910D01992361F1A9EEB0E044E0B5
:10025000E8EEF0E0C4EED0E00DC09FBF9881391306
:1002600005C081E080930B018FEF1EC090910D01BE
:100270009923C9F09FB7F8944C93208125FFEDCFC7
:100280008093F1008091E80085FD03C08AE38093AC
:10029000E80085E080930C019FBF80E005C08FEFF0
:1002A00003C08FEF01C08FEFDF91CF9108951F92B0
:1002B0000F920FB60F9211248F939F93EF93FF939A
:1002C000E1EEF0E08081108283FF11C01092E9001E
:1002D00091E09093EB001092EC0092E19093ED008E
:1002E00098E09093F00010920D0110920A0182FFA5
:1002F00013C080910D01882379F080910C0188232F
:1003000059F0815080930C01811106C084E08093E4
:10031000E9008AE38093E800FF91EF919F918F912C
:100320000F900FBE0F901F9018951F920F920FB64F
:100330000F9211240F931F932F933F934F935F932B
:100340006F937F938F939F93AF93BF93CF93DF93DD
:10035000EF93FF931092E9008091E80083FF4FC173
:10036000E1EFF0E0A08180812081908130E0392BA5
:100370004081908150E0BA01792BC081D08192EF09
:100380009093E800863009F059C004C081E2809360
:10039000EB003CC145ED50E00FEF10E0CA01FA015F
:1003A000A591B4912A173B0709F5FA013296A59158
:1003B000B4916A177B07D1F4FA01349645915491B0
:1003C000FC01369624918C2F90E09D2B8F3F910558
:1003D00019F010F08FEF90E0821708F4282FA8EEA4
:1003E000B0E070E16EEFC1EFD0E006C0495F5F4F53
:1003F0004017510799F6CACF8C91982F9570E1F369
:1004000082FD04C1322F213108F0372F332309F444
:10041000FAC0FA01832F949198838150319681110B
:10042000FACF8FEF830F90E00196480F591F231BDF
:100430006C932111E1CF3031F9F2E8C0853061F4DD
:100440008EEF8093E800E8EEF0E0808180FFFDCF42
:1004500020682093E300DAC0893009F035C0A1118B
:10046000CEC020930D0110920A0110920C018EEF64
:100470008093E80081E02EE731E0C9EED0E0ABEEFA
:10048000B0E00CEE10E06DEE70E08883A9014F5FE4
:100490005F4FF90194919C93992361F0FA01449183
:1004A000F8014083F901329694912D5F3F4FFB0193
:1004B000908301C09A018F5F853039F7EAEEF0E052
:1004C0008EE180831082A2C0883081F4A03809F0C8
:1004D00096C0E8EEF0E0808180FFFDCF80910D01B5
:1004E0008093F1008EEF8093E80090C08132B9F4E0
:1004F000A13A09F084C0E8EEF0E0808180FFFDCFF2
:10050000E0E0F1E027E031E0A1EFB0E081918C93F1
:100510002E173F07D9F78EEF8093E80077C080321F
:10052000D1F4A13209F06BC0E8EEF0E0808182FFE7
:10053000FDCFE0E0F1E027E031E0A1EFB0E08C9109
:1005400081932E173F07D9F7E8EEF0E08BEF808319
:100550008EEF80835BC0823271F4A13209F04FC00C
:1005600020930A01E8EEF0E0808180FFFDCF8EEF5E
:100570008093E8004BC081111AC0E8EEF0E0808162
:1005800080FFFDCFA23851F4E9EEF0E06083809166
:10059000EB0085FB882780F9108201C080E0E1EF45
:1005A000F0E0808310828EEF8093E8002FC0982FB8
:1005B0009D7F913021F5A23011F5232B01F5462FB7
:1005C0004F779FEF940F9430D0F49EEF9093E80014
:1005D0004093E900833021F481E28093EB0016C060
:1005E00089E18093EB0081E090E002C0880F991FC1
:1005F0004A95E2F7EAEEF0E08083108207C081E2DC
:100600008093EB0003C06C932111F6CEFF91EF9124
:10061000DF91CF91BF91AF919F918F917F916F911A
:100620005F914F913F912F911F910F910F900FBEAE
:100630000F901F9018950F931F93CF938C010F5F0E
:100640001F4FFC01C491CC2371F0CA3019F48DE026
:100650000E94FC008C2F0E94FC00F801C4910F5FE7
:100660001F4FC111F2CFCF911F910F910895EF92BB
:10067000FF920F931F93CF93DF93CDB7DEB72797EA
:100680000FB6F894DEBF0FBECDBF8E010F5F1F4FB8
:1006900027E0F80111922A95E9F74AE0B8010E9493
:1006A000C9047E01F8E0EF0EF11CF80181918F0181
:1006B00081110E94FC000E151F05B9F727960FB691
:1006C000F894DEBF0FBECDBFDF91CF911F910F9188
:1006D000FF90EF900895269AE1E8F0E08081806134
:1006E0008083808188608083A0E8B0E08C91826004
:1006F0008C938C9181608C938C9180628C938C9183
:100700008F7E8C938FEF9FEF90938900809388006A
:1007100084E190E090938B0080938A0080818B7FAE
:10072000808380818260808380818E7F8083089532
:10073000CF93DF93ACE7B0E08C918F778C938C9163
:1007400080648C93EAE7F0E080818460808380811C
:1007500082608083808181608083CBE7D0E0888164
:100760008F7D88838C918B7F8C938C918D7F8C93E4
:100770008C918E7F8C938081806280838081886061
:100780008083AEE7B0E08C918E7F8C93808180680F
:100790008083808180648083DF91CF910895279A40
:1007A00085B5877F85BD84B5826084BD84B58E7F25
:1007B00084BD84B58F7784BD84B5806484BD8DE7A6
:1007C00087BD85B58B7F85BD85B5826085BD85B5C7
:1007D000816085BD08957894E1E6F0E080E880834B
:1007E00010820E94E3000E9498030E94CF03549855
:1007F0000E946B03E1E8F0E0808180648083EFE693
:10080000F0E0808180628083C1E8D0E006E810E0FB
:100810008091080190910901019709F048C08881F1
:1008200086FF0BC0F8018081918190931101809324
:10083000100188818F7B88833AC0F8018081918183
:1008400090930F0180930E018AEC90E00E941B03AD
:1008500080911001909111010E94370388EC90E083
:100860000E941B038DEB90E00E941B0380910E0100
:1008700090910F010E9437038BEB90E00E941B03C5
:100880008EEA90E00E941B0380910E0190910F016F
:100890002091100130911101821B930B0E943703AC
:1008A0008CEA90E00E941B03888180648883109208
:1008B000090110920801ACCF1F920F920FB60F9250
:1008C00011248F939F9381E090E09093090180938E
:1008D00008019F918F910F900FBE0F901F90189558
:1008E0001F920F920FB60F9211242F938F939F9305
:1008F00080917800909179008038910518F48DE707
:1009000087BD3FC080917800909179008F3F91051D
:1009100009F018F48FE687BD34C08091780090917B
:1009200079008038914018F483E687BD2AC0809111
:100930007800909179008115924018F48EE587BD7A
:1009400020C080917800909179008038924018F40E
:1009500083E587BD16C0809178009091790081155C
:10096000934018F48AE487BD0CC080917800909180
:1009700079008038934018F482E487BD02C08EE38A
:1009800087BD9F918F912F910F900FBE0F901F9059
:100990001895BB274A3031F4992322F4BDE2909593
:1009A00081959F4F0C94D504BB27FB015527AA279F
:1009B000880F991FAA1FA41710F0A41B83955051EC
:1009C000B9F7A05DAA3308F0A95DA193009779F764
:1009D000B111B1931192CB010C94EE04DC01FC0136
:1009E000672F71917723E1F7329704C07C916D9363
:1009F00070836291AE17BF07C8F30895F894FFCFD4
:080A000000E100000000080005
:00000001FF
